:0400000072EF7FF02C
:10FEC200800F810F820F830F840F890F8A0F8B0F90
:10FED2008C0F8D0F920F930F940F950F960F431265
:10FEE2000A3AC20EF66EFE0EF76E000EF86E00EEC5
:10FEF20001F010EE22F00900F5CFEEFFE550E150DF
:10FF0200FAE12D6A2C6A2B6A000EF86E00018AEF64
:10FF12007FF0000E236E020EA6EC7FF0550E236ECC
:10FF2200020EE2EC7FF0020EC4EC7FF0020E2A6EAB
:10FF3200450E296EAA0EE82EFED7292EFCD72A2EB0
:10FF4200FAD794EF7FF000EF00F0286E040E2864D9
:10FF5200ADEF7FF0AFEF7FF0B1EF7FF0C3EF7FF057
:10FF62002850020D150EF324D96E000EF420DA6E1D
:10FF7200DECF24F0DDCF25F024C0D9FF25C0DAFF83
:10FF820023C0DFFF1200276E040E2764CBEF7FF041
:10FF9200CDEF7FF0CFEF7FF0E1EF7FF02750020D42
:10FFA2000B0EF324D96E000EF420DA6EDECF23F0AE
:10FFB200DDCF24F023C0D9FF24C0DAFFFF0EDF1A01
:10FFC2001200286E040E2864E9EF7FF0EBEF7FF059
:10FFD200EDEF7FF0FFEF7FF02850020D0B0EF324C0
:10FFE200D96E000EF420DA6EDECF24F0DDCF25F0DC
:0EFFF20024C0D9FF25C0DAFF23C0DFFF1200B4
:020000040020DA
:08000000FFFFFFFFFFFFFFFF00
:020000040030CA
:0E000000FF02091FFF8181FF0FC00FE00F40BC
:00000001FF
